:10000000FDC000001BC1000019C1000017C10000A5
:1000100015C1000013C1000011C100000FC1000094
:100020000DC100000BC1000009C1000007C10000A4
:1000300005C1000003C10000A8C40000D3C4000033
:10004000FEC4000029C5000054C500007FC50000A3
:10005000AAC50000D5C5000000C600002BC60000E0
:10006000EDC00000EBC00000E9C00000E7C00000E8
:10007000E5C00000E3C00000E1C00000DFC00000F8
:10008000DDC00000DBC00000D9C00000D7C0000008
:10009000D5C00000D3C00000D1C00000F6C20000EF
:1000A00026C3000056C3000086C30000C7C000007E
:1000B000C5C00000C3C00000C1C00000EAC7000006
:1000C0000C9476080C94A3080C94D0080C94FD08AA
:1000D0000C942A090C9457090C9484090C94B109C6
:1000E0000C94DE09ABC00000A9C00000A7C000004E
:1000F000A5C00000A3C00000A1C000009FC0000078
:100100009DC000009BC0000099C0000097C0000087
:1001100095C0000093C0000091C00000EEC1000037
:100120001EC200004EC200007EC2000087C0000058
:1001300085C00000ECC5000017C6000042C60000E4
:100140006DC6000098C60000C3C60000EEC60000E1
:1001500019C7000044C700006FC700006FC000004F
:100160006DC000006BC0000069C0000067C00000E7
:1001700065C0000063C0000061C000005FC00000F7
:100180005DC000005BC0000059C0000057C0000007
:1001900055C0000053C0000051C000004FC0000017
:1001A0004DC000004BC0000049C0000047C0000027
:1001B0000C940B0A0C94380A0C94650A0C94920A5D
:1001C0000C94BF0A0C94EC0A39C0000037C0000040
:1001D00035C0000033C0000031C000000C94740C26
:1001E0000C94320C2BC0000029C0000027C0000076
:1001F00025C0000023C0000021C0000011241FBE44
:10020000CFEFCDBFDFE3DEBF00E00CBF10E2A0E028
:10021000B0E2E0EDFEE100E00BBF02C007900D92FE
:10022000A232B107D9F721E2A2E2B0E201C01D92E9
:10023000A634B207E1F76FD00C94660FE1CE80E0F0
:1002400092E035D164E070E280E092E0E6D240E0F6
:1002500050E261E080E092E04AC3089588ED84BFF7
:10026000E0E5F0E097EC928384BF88E080838091A2
:10027000510083FFFCCFE0E5F0E083EC85838081D3
:10028000806180838091510084FFFCCF88ED84BF22
:1002900084E08093400065E081E490E00C94F30CEE
:1002A0000895CF93DF93C0E0D8E083E0888385E6AC
:1002B000898380E098E00E94190B8981887F8360A0
:1002C00089838FE295E78EA39FA38091222090914E
:1002D00023208CA79DA78981806489838881807F62
:1002E0008360888384E080934106DF91CF910895F5
:1002F000B5DFD7DFE0E8F6E092E0918381E081832B
:10030000968386830E948A0BE0EAF0E08281816016
:10031000828378940895CF93DF93CDB7DEB7A49707
:10032000CDBFDEBF1AA2E4DF8ADF80E092E093D087
:10033000E0E0F2E08081846080838091060280FFAB
:10034000FCCF81E0809306028091240290912502E7
:100350008BA39CA3CE0181960E94D10B8823F1F040
:1003600080E1E2E1F0E28E010F5F1F4FD8010190C2
:100370000D928A95E1F7BE016F5D7F4FC8010E9423
:100380005B0FF80101900020E9F731978DE09AE0CA
:10039000808391831282C8010E94EE0B80912220FB
:1003A0009091232001966FE275E70E94250F8093BC
:1003B000222090932320803325E7920738F08FE2A4
:1003C00095E78093222090932320B2CF80932C082E
:1003D00090932D08ADCF811522E0920769F48091AA
:1003E000252091E0980F90932520811114C062E0A0
:1003F00081E00C94B20C08958034924061F48091B5
:10040000242091E0980F90932420811104C062E091
:1004100082E00C94B20C0895811522E0920761F4F9
:1004200080912520815080932520811113C062E0A6
:1004300081E00C94C80C08958034924059F4809166
:100440002420815080932420811104C062E082E046
:100450000C94C80C0895EF92FF921F93CF93DF93F3
:100460001F921F92CDB7DEB77C018FB78983F894B6
:100470001981C701B0DFF7018081816080831FBFD0
:1004800080917D208F3F09F4FFCF8FB78A83F89446
:100490009A81ECE7F0E281818F5F81839FBF0F90AB
:1004A0000F90DF91CF911F91FF90EF9008951F93D0
:1004B000CF93DF931F921F92CDB7DEB72FB729835B
:1004C000F8941981FC0120812E7F2083A5DF1FBFB6
:1004D00080917D20811101C0FFCF8FB78A83F8946E
:1004E0009A81ECE7F0E28181815081839FBF0F9078
:1004F0000F90DF91CF911F9108951F920F920FB629
:100500000F9211240BB60F922F933F934F935F934B
:100510006F937F938F939F93AF93BF93EF93FF93CB
:100520004091240250912502E0918420F091852091
:1005300061E080E092E01995FF91EF91BF91AF915A
:100540009F918F917F916F915F914F913F912F91EB
:100550000F900BBE0F900FBE0F901F9018951F921B
:100560000F920FB60F9211240BB60F922F933F9359
:100570004F935F936F937F938F939F93AF93BF93AB
:10058000EF93FF9340912C0250912D02E091842033
:10059000F091852062E080E092E01995FF91EF9163
:1005A000BF91AF919F918F917F916F915F914F918B
:1005B0003F912F910F900BBE0F900FBE0F901F9089
:1005C00018951F920F920FB60F9211240BB60F922F
:1005D0002F933F934F935F936F937F938F939F934B
:1005E000AF93BF93EF93FF93409134025091350244
:1005F000E0918420F091852064E080E092E01995FC
:10060000FF91EF91BF91AF919F918F917F916F91EA
:100610005F914F913F912F910F900BBE0F900FBEA6
:100620000F901F9018951F920F920FB60F921124E2
:100630000BB60F922F933F934F935F936F937F93DC
:100640008F939F93AF93BF93EF93FF9340913C029F
:1006500050913D02E0918420F091852068E080E097
:1006600092E01995FF91EF91BF91AF919F918F917A
:100670007F916F915F914F913F912F910F900BBEA2
:100680000F900FBE0F901F9018951F920F920FB6EC
:100690000F9211240BB60F922F933F934F935F93BA
:1006A0006F937F938F939F93AF93BF93EF93FF933A
:1006B0004091640250916502E0918220F091832084
:1006C00061E080E492E01995FF91EF91BF91AF91C5
:1006D0009F918F917F916F915F914F913F912F915A
:1006E0000F900BBE0F900FBE0F901F9018951F928A
:1006F0000F920FB60F9211240BB60F922F933F93C8
:100700004F935F936F937F938F939F93AF93BF9319
:10071000EF93FF9340916C0250916D02E091822023
:10072000F091832062E080E492E01995FF91EF91CF
:10073000BF91AF919F918F917F916F915F914F91F9
:100740003F912F910F900BBE0F900FBE0F901F90F7
:1007500018951F920F920FB60F9211240BB60F929D
:100760002F933F934F935F936F937F938F939F93B9
:10077000AF93BF93EF93FF93409174025091750232
:10078000E0918220F091832064E080E492E019956A
:10079000FF91EF91BF91AF919F918F917F916F9159
:1007A0005F914F913F912F910F900BBE0F900FBE15
:1007B0000F901F9018951F920F920FB60F92112451
:1007C0000BB60F922F933F934F935F936F937F934B
:1007D0008F939F93AF93BF93EF93FF9340917C02CE
:1007E00050917D02E0918220F091832068E080E4C6
:1007F00092E01995FF91EF91BF91AF919F918F91E9
:100800007F916F915F914F913F912F910F900BBE10
:100810000F900FBE0F901F901895BF92CF92DF924E
:10082000EF92FF920F931F93CF93DF931F92CDB759
:10083000DEB78C017B01811522E0920781F461E231
:1008400070E082E00E94E90CC82ED12CDC2CCC2474
:1008500060E270E082E00E94E90CC82A12C0803495
:100860009240D1F565E270E082E00E94E90CC82E6A
:10087000D12CDC2CCC2464E270E082E00E94E90CF4
:10088000C82A8FB78983F894B980C801A4DDF8011C
:100890008081817092E09083C486D586F70125819E
:1008A0003681F801208F318FF7019281F801928310
:1008B000F7019481F8019483F7019381F801938300
:1008C000F7019181F8019183F7019081892BF8015B
:1008D0008083C801A1DDBFBE0F90DF91CF911F9132
:1008E0000F91FF90EF90DF90CF90BF900895AF925F
:1008F000BF92CF92DF92EF92FF920F931F93CF930D
:10090000DF931F92CDB7DEB76C01B62E7A01862F2A
:10091000837029F4862F8695869502E002C0862F83
:1009200000E080FF0F5F10E0000F111F000F111F8C
:10093000000F111FC6018096080F191F8FB78983FA
:10094000F894A980C60147DDF7018081F801808312
:10095000F7018281F8018283F7018181F8018183A7
:10096000B0FE04C0F7018381F8018683C60154DD1F
:10097000AFBE0F90DF91CF911F910F91FF90EF903D
:10098000DF90CF90BF90AF9008951F920F920FB657
:100990000F9211240BB60F922F933F934F935F93B7
:1009A0006F937F938F939F93AF93BF93EF93FF9337
:1009B000E0916C20F0916D20309709F01995FF912E
:1009C000EF91BF91AF919F918F917F916F915F91C7
:1009D0004F913F912F910F900BBE0F900FBE0F9034
:1009E0001F9018951F920F920FB60F9211240BB6FD
:1009F0000F922F933F934F935F936F937F938F93B8
:100A00009F93AF93BF93EF93FF93E0916A20F09190
:100A10006B20309709F01995FF91EF91BF91AF913D
:100A20009F918F917F916F915F914F913F912F9106
:100A30000F900BBE0F900FBE0F901F9018951F9236
:100A40000F920FB60F9211240BB60F922F933F9374
:100A50004F935F936F937F938F939F93AF93BF93C6
:100A6000EF93FF93E0916820F0916920309709F0AF
:100A70001995FF91EF91BF91AF919F918F917F91C8
:100A80006F915F914F913F912F910F900BBE0F90FF
:100A90000FBE0F901F9018951F920F920FB60F92D6
:100AA00011240BB60F922F933F934F935F936F9345
:100AB0007F938F939F93AF93BF93EF93FF93E091B7
:100AC0006620F0916720309709F01995FF91EF911A
:100AD000BF91AF919F918F917F916F915F914F9156
:100AE0003F912F910F900BBE0F900FBE0F901F9054
:100AF00018951F920F920FB60F9211240BB60F92FA
:100B00002F933F934F935F936F937F938F939F9315
:100B1000AF93BF93EF93FF93E0916420F091652032
:100B2000309709F01995FF91EF91BF91AF919F9187
:100B30008F917F916F915F914F913F912F910F9086
:100B40000BBE0F900FBE0F901F9018951F920F9223
:100B50000FB60F9211240BB60F922F933F934F9322
:100B60005F936F937F938F939F93AF93BF93EF9315
:100B7000FF93E0916220F0916320309709F019957E
:100B8000FF91EF91BF91AF919F918F917F916F9165
:100B90005F914F913F912F910F900BBE0F900FBE21
:100BA0000F901F9018951F920F920FB60F9211245D
:100BB0000BB60F922F933F934F935F936F937F9357
:100BC0008F939F93AF93BF93EF93FF93E091602038
:100BD000F0916120309709F01995FF91EF91BF9145
:100BE000AF919F918F917F916F915F914F913F91C5
:100BF0002F910F900BBE0F900FBE0F901F90189566
:100C00001F920F920FB60F9211240BB60F922F93D3
:100C10003F934F935F936F937F938F939F93AF9384
:100C2000BF93EF93FF93E0915E20F0915F203097A8
:100C300009F01995FF91EF91BF91AF919F918F911D
:100C40007F916F915F914F913F912F910F900BBECC
:100C50000F900FBE0F901F9018951F920F920FB616
:100C60000F9211240BB60F922F933F934F935F93E4
:100C70006F937F938F939F93AF93BF93EF93FF9364
:100C8000E0915C20F0915D20309709F01995FF917B
:100C9000EF91BF91AF919F918F917F916F915F91F4
:100CA0004F913F912F910F900BBE0F900FBE0F9061
:100CB0001F9018951F920F920FB60F9211240BB62A
:100CC0000F922F933F934F935F936F937F938F93E5
:100CD0009F93AF93BF93EF93FF93E0915A20F091CE
:100CE0005B20309709F01995FF91EF91BF91AF917B
:100CF0009F918F917F916F915F914F913F912F9134
:100D00000F900BBE0F900FBE0F901F9018951F9263
:100D10000F920FB60F9211240BB60F922F933F93A1
:100D20004F935F936F937F938F939F93AF93BF93F3
:100D3000EF93FF93E0915820F0915920309709F0FC
:100D40001995FF91EF91BF91AF919F918F917F91F5
:100D50006F915F914F913F912F910F900BBE0F902C
:100D60000FBE0F901F9018951F920F920FB60F9203
:100D700011240BB60F922F933F934F935F936F9372
:100D80007F938F939F93AF93BF93EF93FF93E091E4
:100D90005620F0915720309709F01995FF91EF9167
:100DA000BF91AF919F918F917F916F915F914F9183
:100DB0003F912F910F900BBE0F900FBE0F901F9081
:100DC00018951F920F920FB60F9211240BB60F9227
:100DD0002F933F934F935F936F937F938F939F9343
:100DE000AF93BF93EF93FF93E0915420F091552080
:100DF000309709F01995FF91EF91BF91AF919F91B5
:100E00008F917F916F915F914F913F912F910F90B3
:100E10000BBE0F900FBE0F901F9018951F920F9250
:100E20000FB60F9211240BB60F922F933F934F934F
:100E30005F936F937F938F939F93AF93BF93EF9342
:100E4000FF93E0915220F0915320309709F01995CB
:100E5000FF91EF91BF91AF919F918F917F916F9192
:100E60005F914F913F912F910F900BBE0F900FBE4E
:100E70000F901F9018951F920F920FB60F9211248A
:100E80000BB60F922F933F934F935F936F937F9384
:100E90008F939F93AF93BF93EF93FF93E091502075
:100EA000F0915120309709F01995FF91EF91BF9182
:100EB000AF919F918F917F916F915F914F913F91F2
:100EC0002F910F900BBE0F900FBE0F901F90189593
:100ED0001F920F920FB60F9211240BB60F922F9301
:100EE0003F934F935F936F937F938F939F93AF93B2
:100EF000BF93EF93FF93E0914E20F0914F203097F6
:100F000009F01995FF91EF91BF91AF919F918F914A
:100F10007F916F915F914F913F912F910F900BBEF9
:100F20000F900FBE0F901F9018951F920F920FB643
:100F30000F9211240BB60F922F933F934F935F9311
:100F40006F937F938F939F93AF93BF93EF93FF9391
:100F5000E0914C20F0914D20309709F01995FF91C8
:100F6000EF91BF91AF919F918F917F916F915F9121
:100F70004F913F912F910F900BBE0F900FBE0F908E
:100F80001F9018951F920F920FB60F9211240BB657
:100F90000F922F933F934F935F936F937F938F9312
:100FA0009F93AF93BF93EF93FF93E0914A20F0910B
:100FB0004B20309709F01995FF91EF91BF91AF91B8
:100FC0009F918F917F916F915F914F913F912F9161
:100FD0000F900BBE0F900FBE0F901F9018951F9291
:100FE0000F920FB60F9211240BB60F922F933F93CF
:100FF0004F935F936F937F938F939F93AF93BF9321
:10100000EF93FF93E0914820F0914920309709F049
:101010001995FF91EF91BF91AF919F918F917F9122
:101020006F915F914F913F912F910F900BBE0F9059
:101030000FBE0F901F9018951F920F920FB60F9230
:1010400011240BB60F922F933F934F935F936F939F
:101050007F938F939F93AF93BF93EF93FF93E09111
:101060004620F0914720309709F01995FF91EF91B4
:10107000BF91AF919F918F917F916F915F914F91B0
:101080003F912F910F900BBE0F900FBE0F901F90AE
:1010900018951F920F920FB60F9211240BB60F9254
:1010A0002F933F934F935F936F937F938F939F9370
:1010B000AF93BF93EF93FF93E0914420F0914520CD
:1010C000309709F01995FF91EF91BF91AF919F91E2
:1010D0008F917F916F915F914F913F912F910F90E1
:1010E0000BBE0F900FBE0F901F9018951F920F927E
:1010F0000FB60F9211240BB60F922F933F934F937D
:101100005F936F937F938F939F93AF93BF93EF936F
:10111000FF93E0914220F0914320309709F0199518
:10112000FF91EF91BF91AF919F918F917F916F91BF
:101130005F914F913F912F910F900BBE0F900FBE7B
:101140000F901F9018951F920F920FB60F921124B7
:101150000BB60F922F933F934F935F936F937F93B1
:101160008F939F93AF93BF93EF93FF93E0914020B2
:10117000F0914120309709F01995FF91EF91BF91BF
:10118000AF919F918F917F916F915F914F913F911F
:101190002F910F900BBE0F900FBE0F901F901895C0
:1011A0001F920F920FB60F9211240BB60F922F932E
:1011B0003F934F935F936F937F938F939F93AF93DF
:1011C000BF93EF93FF93E0913E20F0913F20309743
:1011D00009F01995FF91EF91BF91AF919F918F9178
:1011E0007F916F915F914F913F912F910F900BBE27
:1011F0000F900FBE0F901F9018951F920F920FB671
:101200000F9211240BB60F922F933F934F935F933E
:101210006F937F938F939F93AF93BF93EF93FF93BE
:10122000E0913C20F0913D20309709F01995FF9115
:10123000EF91BF91AF919F918F917F916F915F914E
:101240004F913F912F910F900BBE0F900FBE0F90BB
:101250001F9018951F920F920FB60F9211240BB684
:101260000F922F933F934F935F936F937F938F933F
:101270009F93AF93BF93EF93FF93E0913A20F09148
:101280003B20309709F01995FF91EF91BF91AF91F5
:101290009F918F917F916F915F914F913F912F918E
:1012A0000F900BBE0F900FBE0F901F9018951F92BE
:1012B0000F920FB60F9211240BB60F922F933F93FC
:1012C0004F935F936F937F938F939F93AF93BF934E
:1012D000EF93FF93E0913820F0913920309709F097
:1012E0001995FF91EF91BF91AF919F918F917F9150
:1012F0006F915F914F913F912F910F900BBE0F9087
:101300000FBE0F901F9018951F920F920FB60F925D
:1013100011240BB60F922F933F934F935F936F93CC
:101320007F938F939F93AF93BF93EF93FF93E0913E
:101330003620F0913720309709F01995FF91EF9101
:10134000BF91AF919F918F917F916F915F914F91DD
:101350003F912F910F900BBE0F900FBE0F901F90DB
:1013600018951F920F920FB60F9211240BB60F9281
:101370002F933F934F935F936F937F938F939F939D
:10138000AF93BF93EF93FF93E0913420F09135201A
:10139000309709F01995FF91EF91BF91AF919F910F
:1013A0008F917F916F915F914F913F912F910F900E
:1013B0000BBE0F900FBE0F901F9018951F920F92AB
:1013C0000FB60F9211240BB60F922F933F934F93AA
:1013D0005F936F937F938F939F93AF93BF93EF939D
:1013E000FF93E0913220F0913320309709F0199566
:1013F000FF91EF91BF91AF919F918F917F916F91ED
:101400005F914F913F912F910F900BBE0F900FBEA8
:101410000F901F9018951F920F920FB60F921124E4
:101420000BB60F922F933F934F935F936F937F93DE
:101430008F939F93AF93BF93EF93FF93E0913020EF
:10144000F0913120309709F01995FF91EF91BF91FC
:10145000AF919F918F917F916F915F914F913F914C
:101460002F910F900BBE0F900FBE0F901F901895ED
:101470001F920F920FB60F9211240BB60F922F935B
:101480003F934F935F936F937F938F939F93AF930C
:10149000BF93EF93FF93E0912E20F0912F20309790
:1014A00009F01995FF91EF91BF91AF919F918F91A5
:1014B0007F916F915F914F913F912F910F900BBE54
:1014C0000F900FBE0F901F9018951F920F920FB69E
:1014D0000F9211240BB60F922F933F934F935F936C
:1014E0006F937F938F939F93AF93BF93EF93FF93EC
:1014F000E0912C20F0912D20309709F01995FF9163
:10150000EF91BF91AF919F918F917F916F915F917B
:101510004F913F912F910F900BBE0F900FBE0F90E8
:101520001F9018951F920F920FB60F9211240BB6B1
:101530000F922F933F934F935F936F937F938F936C
:101540009F93AF93BF93EF93FF93E0912A20F09185
:101550002B20309709F01995FF91EF91BF91AF9132
:101560009F918F917F916F915F914F913F912F91BB
:101570000F900BBE0F900FBE0F901F9018951F92EB
:101580000F920FB60F9211240BB60F922F933F9329
:101590004F935F936F937F938F939F93AF93BF937B
:1015A000EF93FF93E0912820F0912920309709F0E4
:1015B0001995FF91EF91BF91AF919F918F917F917D
:1015C0006F915F914F913F912F910F900BBE0F90B4
:1015D0000FBE0F901F9018951F920F920FB60F928B
:1015E00011240BB60F922F933F934F935F936F93FA
:1015F0007F938F939F93AF93BF93EF93FF93E0916C
:101600002620F0912720309709F01995FF91EF914E
:10161000BF91AF919F918F917F916F915F914F910A
:101620003F912F910F900BBE0F900FBE0F901F9008
:1016300018951F93CF93DF931F921F92CDB7DEB7FC
:101640002FB72A83F8941A81282F392F211588E083
:10165000380739F461E083E085D164E083E082D12A
:1016600043C0203488E0380739F462E083E07AD15F
:1016700064E083E077D138C0211589E0380739F478
:1016800061E084E06FD164E084E06CD12DC020344F
:1016900089E0380739F462E084E064D164E084E0F2
:1016A00061D122C021158AE0380739F461E085E074
:1016B00059D164E085E056D117C020348AE038075C
:1016C00039F462E085E04ED164E085E04BD10CC096
:1016D00021153B4039F461E086E044D164E086E0C6
:1016E00041D102C01FBF10C080917D208F3F09F4FF
:1016F000FFCF8FB78983F8949981ECE7F0E281817D
:101700008F5F81839FBF1FBF0F900F90DF91CF919D
:101710001F910895CF93DF93CDB7DEB72797CDBF45
:10172000DEBFE0EAF6E088E0818384E08283EBE0DC
:10173000F0E284818D8385818E8386818F83808191
:101740009181A281B38189839A83AB83BC8360E159
:1017500086E008D1BE016F5F7F4F80EA9BE049D2EF
:10176000E0EAFBE083818F7C8061838383818C7FCF
:10177000838340E166E071E286E790E21ED140E2B9
:1017800066E870E280E790E218D181E090E0809313
:101790006E2090936F202796CDBFDEBFDF91CF9153
:1017A0000895CF93DF93EC01E6E7F0E22381928185
:1017B000291781F02281A081B1819581392F369539
:1017C0003223A30FB11D8C912F5F922392838883C4
:1017D00081E001C080E0DF91CF910895CF93DF9346
:1017E000DC01E0E7F0E2938182819813FACF40E0D8
:1017F00050E024C0E0E7F0E2238182819581281B3C
:1018000029238481281729F1FD01E60FF71F608144
:10181000E0E7F0E223813281231B2923821761F064
:101820008381C081D18196959823C90FD11D68838A
:1018300095818F5F892383834F5F5F4FFD01019007
:101840000020E9F73197EA1BFB0BBA014E175F073F
:1018500088F2E0EAFBE083818C7F81608383DF9103
:10186000CF9108951F920F920FB60F9211240BB6CD
:101870000F922F933F934F935F936F937F938F9329
:101880009F93AF93BF93EF93FF93E0E7F0E29381D1
:101890008281981789F09281A081B1818581282F5A
:1018A00026952923A20FB11D6C919F5F8923828306
:1018B00080EA9BE09ED005C0E0EAFBE083818C7F5C
:1018C0008383FF91EF91BF91AF919F918F917F9112
:1018D0006F915F914F913F912F910F900BBE0F90A1
:1018E0000FBE0F901F9018951F920F920FB60F9278
:1018F00011240BB60F922F933F934F938F939F9387
:10190000AF93BF93EF93FF934091A00BE6E7F0E214
:10191000838122819581821B89232481821791F002
:1019200083813281831B8923281761F08381A08101
:10193000B18196959823A90FB11D4C9395818F5F26
:1019400089238383FF91EF91BF91AF919F918F91F5
:101950004F913F912F910F900BBE0F900FBE0F90A4
:101960001F901895CF93DF931F92CDB7DEB79FB727
:101970009983F8949981E82FF0E0E059FF4F609542
:101980008081682360839FBF0F90DF91CF9108957E
:10199000CF93DF931F92CDB7DEB79FB79983F894AB
:1019A0009981E82FF0E0E059FF4F8081682B608338
:1019B0009FBF0F90DF91CF910895FC011282138297
:1019C0004483440F415045836083718380E090E0FD
:1019D00008954091CA01E62FF72F8093CA018491A0
:1019E0004093CA0108951BBEFC0128ED24BF60830B
:1019F0000895FC01918195FFFDCF608380E090E028
:101A000008954F925F926F927F928F929F92AF92C2
:101A1000BF92EF92FF920F931F93CF937C014A01E5
:101A20005B0128013901D901C801689412F8B69503
:101A3000A795979587951694D1F7B901A801032E1C
:101A400036E176956795579547953A95D1F7302DBC
:101A5000F701248122FD15C0D301C201689413F857
:101A6000B695A795979587951694D1F7B301A201DE
:101A7000032E37E176956795579547953A95D1F7B7
:101A8000302D88159905AA05BB0508F4A1C0841658
:101A90009506A606B70608F49DC0F701848182FD6D
:101AA00004C0880C991CAA1CBB1CC301B201A5016F
:101AB0009401DFD18FEF90E0A0E0B0E0C9EF0DC05E
:101AC000281739074A075B0750F0880F991FAA1F8C
:101AD000BB1FCD3F0CF48160CF5FC7308CF3CC23AC
:101AE0000CF04DC0D501C401880F991FAA1FBB1F60
:101AF000880F991FAA1FBB1F880F991FAA1FBB1F02
:101B0000481A590A6A0A7B0ACE3FECF48DEF9FEF20
:101B10008C1B9109C7FD939504C0440C551C661C91
:101B2000771C8A95D2F7D501C401B695A7959795EC
:101B30008795BC01CD01640D751D861D971DA501FE
:101B4000940197D13BC08C2F0C2E000C990B03965F
:101B5000A501940104C0220F331F441F551F8A950D
:101B6000D2F7DA01C901B695A79597958795BC017B
:101B7000CD01640D751D861D971D7BD11FC08C2F57
:101B80000C2E000C990B0396A501940104C0220FA2
:101B9000331F441F551F8A95D2F7DA01C901B69544
:101BA000A79597958795BC01CD01640D751D861D80
:101BB000971D5FD12150310941095109832F8F7041
:101BC000C295C07FC82BF701C783268381E003C07D
:101BD00080E001C080E0CF911F910F91FF90EF90C6
:101BE000BF90AF909F908F907F906F905F904F903D
:101BF00008950F931F93CF93DF93EC018B01009710
:101C000009F4FEC0803C910521F460E180E0AADE89
:101C1000F7C0C11584E0D80721F464E080E0A2DEBB
:101C2000EFC0C038E1E0DE0721F462E080E09ADE38
:101C3000E7C0C115F1E0DF0721F461E080E092DE4A
:101C4000DFC0C03883E0D80721F461E081E08ADE9C
:101C5000D7C0C039E3E0DE0721F461E082E082DE34
:101C6000CFC0C115F2E0DF0721F462E081E07ADE47
:101C7000C7C0C03482E0D80721F462E082E072DE9F
:101C8000BFC0C032E3E0DE0721F464E082E06ADE38
:101C9000B7C0C115F8E0DF0721F461E083E062DE40
:101CA000AFC0C11589E0D80721F461E084E05ADEB5
:101CB000A7C0C115EAE0DE0721F461E085E052DE4D
:101CC0009FC0C115FBE0DF0721F461E086E04ADE3A
:101CD00097C0C03488E0D80721F462E083E042DE98
:101CE0008FC0C034E9E0DE0721F462E084E03ADE30
:101CF00087C0C034FAE0DF0721F462E085E032DE1D
:101D00007FC0C03988E0D80721F464E083E02ADE90
:101D100077C0C039E9E0DE0721F464E084E022DE28
:101D20006FC0C039FAE0DF0721F464E085E01ADE15
:101D300067C0C0398BE0D80721F464E086E012DE8A
:101D40005FC0C03CE8E0DE0721F468E083E00ADE23
:101D500057C0C03CF9E0DF0721F468E084E002DE10
:101D60004FC0C03C8AE0D80721F468E085E0FADD86
:101D700047C0C03AE8E0DE0721F460E183E0F2DD2D
:101D80003FC0C03AF9E0DF0721F460E184E0EADD1A
:101D900037C0C03A8AE0D80721F460E185E0E2DD8F
:101DA0002FC0C03AEBE0DE0721F460E186E0DADD27
:101DB00027C0C03BF8E0DF0721F460E283E0D2DD1A
:101DC0001FC0C03B89E0D80721F460E284E0CADD8F
:101DD00017C0C03BEAE0DE0721F460E285E0C2DD27
:101DE0000FC0C038F4E0DF0721F460E483E0BADD1F
:101DF00007C0C03A84E0D80719F460E485E0B2DD9A
:101E00008D818F738D83F801968125818481822B4A
:101E1000992311F098E001C090E0892B8D83F8019F
:101E2000408151816281738100E01BE127EB30E04A
:101E3000CE01E7DD9C8198609C839C8190619C83AE
:101E4000DF91CF911F910F910895AA1BBB1B51E108
:101E500007C0AA1FBB1FA617B70710F0A61BB70B1A
:101E6000881F991F5A95A9F780959095BC01CD01BF
:101E70000895A1E21A2EAA1BBB1BFD010DC0AA1FCB
:101E8000BB1FEE1FFF1FA217B307E407F50720F0E3
:101E9000A21BB30BE40BF50B661F771F881F991F5E
:101EA0001A9469F760957095809590959B01AC01A7
:101EB000BD01CF010895FB01DC010D900020E9F781
:101EC000119701900D920020E1F70895F894FFCF4B
:101ED000001001000300100007000000E1000003F3
:101EE0000000726563656976656420636861723AB3
:021EF0002000D0
:00000001FF
